:020000040800F2
:100000000050002021020008270200082B020008EF
:100010009D020008A1020008E9020008000000009B
:100020000000000000000000000000003103000894
:10003000350300080000000039030008A10A000889
:100040004D0300084D0300084D0300084D03000850
:100050004D0300084D030008C9080008E508000822
:10006000010900081D0900084D0300084D030008A0
:100070004D0300084D0300084D0300084D03000820
:100080004D0300084D0300084D0300084D03000810
:100090004D0300084D0300084D0300084D03000800
:1000A0004D0300084D0300084D0300084D030008F0
:1000B0004D0300084D0300084D0300084D030008E0
:1000C0004D0300084D0300084D030008890A00088D
:1000D0004D0300084D0300084D0300084D030008C0
:1000E0004D0300084D0300084D0300080000000008
:1000F0000000000000000000000000000000000000
:1001000000000000000000005FF808F100B583B0B7
:1001100000F0AAF9304B314A1360314A1360314B79
:10012000314A32498B4204D21168196004330432D7
:10013000F7E72A4B1A682E4B9A4200D0FEE7284B6D
:100140001A682C4B9A42F9D1234B2B4A13602B4A45
:1001500013602B4B02E000221A600433294A9342B9
:10016000F9D3254B1B6813B9244B1B6803B1FEE779
:1001700000F086F9694601A800F022F9224C234BD1
:10018000E41AA4100025AC4214DC214C214BE41AE3
:10019000A4100025AC4213DC0099019801F0D4F9B9
:1001A00005461D4C1D4BE41AA410002C0EDC2846FD
:1001B00000F0E2F8154B53F8253098470135E2E797
:1001C000144B53F8253098470135E3E7013C134BB6
:1001D00053F824309847E8E7BABADECA0000002096
:1001E000A000002000000020C8200008A40000207B
:1001F0007856341232547698A400002078010020FA
:10020000A40000207C010020780300087803000887
:1002100078030008780300087803000878030008D2
:1002200008B5FFF773FF00BEFEE71EF0040F0CBF1A
:10023000EFF30880EFF309807146414A10472DE93A
:10024000F04182B004468846124B5E6B9F6B9D6AFC
:100250001B6B13F0020F03D00E4BDB6A002B0CDB81
:100260000D4800F0B5F8CDF800803B4632462946EF
:10027000204600F009F900BEFEE74BF6AB6100F046
:100280007DF90028ECD0034B4FF00042DA6202B057
:10029000BDE8F08100ED00E06820000800BEFEE748
:1002A0001EF0040F0CBFEFF30880EFF309807146D6
:1002B000244A10472DE9F04182B004468846084B95
:1002C0005E6B9F6B9D6A074800F082F8CDF8008056
:1002D0003B4632462946204600F0D6F800BEFEE7EF
:1002E00000ED00E0782000081EF0040F0CBFEFF3D3
:1002F0000880EFF309807146134A10472DE9F04159
:1003000082B004468846084B5E6B9F6B9D6A074827
:1003100000F05EF8CDF800803B4632462946204684
:1003200000F0B2F800BEFEE700ED00E08420000817
:1003300000BEFEE700BEFEE700BEFEE7704700001D
:100340003F020008B5020008FD02000800BEFEE7FB
:10035000C820000800000020A4000020C8200008D9
:100360000000000000000000A40000207C0100202C
:08037000000000000000000085
:10037800FEE7000008B503460C4A12685AB10B4A5A
:100388001068033323F003030344094A934206D851
:10039800064A136008BD054A06491160EFE701F0F7
:1003A80065F90C2303604FF0FF30F3E7A800002045
:1003B800004C00207C01002001230360014B0B60EE
:1003C800704700BF040000200FB400B583B004AB31
:1003D80053F8042B01938021064801F0ADF9002859
:1003E80003DD0146034800F037F803B05DF804EB7D
:1003F80004B07047B00000202DE9F04385B00446F2
:100408000F4643560BB10E461EE0042528462146EA
:10041800ABBE0446384605B0BDE8F08314F9011BAD
:1004280004AA1A4402F8101C0133AB42F6D304AAFA
:100438001344002203F8102C4FF00408E946404604
:100448004946ABBE8046761B002EE3D03546102EBB
:1004580028BF10250023E8E708B5FFF7CDFF08BD42
:1004680008B500F0FDF8024A024B9A6008BD00BFCB
:100478000000000800ED00E008B500F019F908BD1B
:10048800F8B504460D4617461E462748FFF79CFF59
:1004980021682648FFF798FF61682548FFF794FF11
:1004A800A1682448FFF790FFE1682348FFF78CFF15
:1004B80021692248FFF788FF61692148FFF784FF17
:1004C800A1692048FFF780FFE1691F48FFF77CFF1B
:1004D8001E48FFF779FF29461D48FFF775FF1D4C99
:1004E800E16A1D48FFF770FF216B1C48FFF76CFF9E
:1004F800E16B1B48FFF768FF15F0800F0AD115F470
:10050800004F0CD11748FFF75FFF06991648FFF711
:100518005BFFF8BD39461548FFF756FFEFE7314650
:100528001348FFF751FFEDE74C1F00085C1F000858
:100538006C1F00087C1F00088C1F00089C1F000807
:10054800AC1F0008BC1F0008CC1F0008DC1F0008F7
:10055800E81F000800ED00E0F81F00080820000868
:10056800182000084820000850200008282000080B
:100578003820000883691A888A4201D00020704711
:100588000268033A012A03D80233836101207047C5
:100598000020704782B00023019300932C4A13680F
:1005A80043F4803313602A4B1B6803F40033009331
:1005B800019B01330193009B1BB9019BB3F5A06F0D
:1005C800F1D1234B1B6813F4003F06D0012300939D
:1005D800009B012B04D002B0704700230093F7E77B
:1005E8001C4B1A6842F010021A601A6822F00302C3
:1005F8001A601A6842F002021A60A3F580535A681A
:100608005A605A685A605A6842F480625A605A6856
:1006180022F47C125A605A6842F4E8125A601A6846
:1006280042F080721A600A4B1B6813F0007FFAD000
:10063800074B5A6822F003025A605A6842F00202D5
:100648005A60034B5B6803F00C03082BF9D1C2E72F
:10065800001002400020024008B5FFF79BFF08BDCC
:1006680008B5104B1A6842F001021A6059680E4A20
:100678000A405A601A6822F0847222F480321A60A2
:100688001A6822F480221A605A6822F4FE025A601C
:100698004FF41F029A60FFF7DFFF044B4FF0006230
:1006A8009A6008BD001002400000FFF800ED00E06D
:1006B8001F4B5B6803F00C03042B15D0082B17D0D5
:1006C8001BB11C4B1C4A1A6002E01A4B1A4A1A60EA
:1006D800174B5B68C3F30313184AD35CDAB21549A6
:1006E8000B68D3400B607047124B134A1A60EFE750
:1006F8000F4A53685268C3F38343023312F4803FAE
:100708000AD00B4A526812F4003F0BD00C4A02FB85
:1007180003F3084A1360DBE7094A02FB03F3054ABF
:100728001360D5E7044A02FB03F3024A1360CFE7DC
:10073800001002401C00002000127A000C0000206B
:1007480000093D0010B4012824D018B1022841D076
:1007580010BC7047072910D90F29F9D8A1F108044E
:10076800E4B2A4000F23A3402A48016821EA030346
:1007780002FA04F119430160EAE789000F2303FA3A
:1007880001F0254C236823EA000302FA01F119431A
:100798002160DDE7072910D90F29D9D8A1F1080070
:1007A800C0B280000F2383401C4C216821EA030358
:1007B80002FA00F119432160CAE789000F2303FAFE
:1007C80001F0174C236823EA000302FA01F11943E8
:1007D8002160BDE7072910D90F29B9D8A1F108036D
:1007E800DBB29B000F2098400E4C216821EA0000E4
:1007F80002FA03F101432160AAE789000F2303FAF3
:1008080001F0094C236823EA000302FA01F11943B5
:1008180021609DE70408014000080140040C0140E4
:10082800000C01400410014000100140012813D0C1
:1008380010B102281FD07047012A07D0002A2FD1F3
:10084800012303FA01F1174B19607047012303FADA
:1008580001F1154B19607047012A06D002BB01232C
:1008680003FA01F1114B19607047012303FA01F1F2
:100878000F4B19607047012A09D062B9012303FAA6
:1008880001F20C48036823EA0203036003E0012332
:100898008B40094A1360012303FA01F1074B1960E1
:1008A800704700BF1408014010080140140C0140B3
:1008B800100C01400C1001401010014014100140B0
:1008C80008B5044B1B689847034A536943F0010372
:1008D800536108BD300100200004014008B5044BF5
:1008E8001B689847034A536943F00203536108BDE4
:1008F800340100200004014008B5044B1B689847E8
:10090800034A536943F00403536108BD38010020CA
:100918000004014008B5044B1B689847034A536913
:1009280043F00803536108BD3C0100200004014066
:10093800012811D048B1022815D0104803680122B7
:1009480002FA01F11943016070470C4883680122DB
:100958008A4013438360F0E70848C36801228A404D
:100968001343C360E9E7054A906801238B401843A5
:100978009060D0680343D360DFE700BF0004014004
:10098800014B1860704700BF30010020014B186010
:10099800704700BF34010020014B1860704700BF4A
:1009A80038010020014B1860704700BF3C0100204F
:1009B8001F2809D93B2806D82038C0B2012303FADA
:1009C80000F0044B18607047012303FA00F0024B53
:1009D8001860704704E100E000E100E0034B4FF4C9
:1009E80080321A60043301221A60704700100240F6
:1009F8001F291CD801280BD010B1022810D070472D
:100A0800012303FA01F10A4A13680B431360704784
:100A1800012303FA01F1074A13680B431360704777
:100A2800012303FA01F1044A13680B43136070476A
:100A3800141002401C10024018100240024B40F2F1
:100A480047321A60704700BF0030014038B505468C
:100A58000C46002211460120FFF7E8FE074BDD6037
:100A6800064B9B6813F0800FFAD1044BDB682370A8
:100A7800012200211046FFF7D9FE38BD00300140A1
:100A880008B5034BD868034B1B68C0B2984708BD2C
:100A9800003001406C01002008B50D4B1B689847D9
:100AA8000C4B1B78012B02D0022B0DD008BD0A4B32
:100AB8001A6822F002021A601A6822F001021A600B
:100AC80000225A609A60F1E7034B00229A60EDE732
:100AD800700100204001002010E000E0014B0022DE
:100AE8001A60704710E000E0094B58601A6842F03D
:100AF80001021A60064B1B6813F4803FFAD0044BBE
:100B08001A6822F001021A6000225A609A6070473F
:100B180010E000E010B582B0044601220B2100204D
:100B2800FFF784FE0DF107012046FFF78FFF02B0A3
:100B380010BD10B582B0044600220B211046FFF705
:100B480075FE0DF107012046FFF780FF02B010BDCA
:100B580008B5012204210020FFF768FE6420FFF792
:100B6800C3FF002204211046FFF760FE0120FFF7B3
:100B7800BBFF012204210020FFF758FE6420FFF785
:100B8800B3FF002204211046FFF750FE6420FFF750
:100B9800ABFF012204210020FFF748FE0948FFF7B8
:100BA800A3FF1120FFF7C5FF0748FFF79DFF3A2075
:100BB800FFF7BFFF0520FFF7ADFF2920FFF7B9FFBB
:100BC80008BD00BFC0D40100F049020038B5054691
:100BD8002A20FFF7AEFF0020FFF79CFF0020FFF759
:100BE80099FF0020FFF796FF7F20FFF793FF2B2048
:100BF800FFF79FFF0020FFF78DFF0020FFF78AFF18
:100C08000020FFF787FF9F20FFF784FF2C20FFF7C6
:100C180090FF002407E0280AFFF77CFFE8B2FFF7FF
:100C280079FF0134A4B2B4F5A04FF4D338BD2DE94F
:100C3800F8438146884617461C46BDF820600B1AC3
:100C4800A51A013503FB0555ADB22A20FFF771FF40
:100C58000020FFF75FFF4846FFF75CFF0020FFF723
:100C680059FF4046FFF756FF2B20FFF762FF002091
:100C7800FFF750FF3846FFF74DFF0020FFF74AFF08
:100C88002046FFF747FF2C20FFF753FF002407E01B
:100C9800300AFFF73FFFF0B2FFF73CFF0134A4B280
:100CA800AC42F5D3BDE8F883094B1B782BB9094B47
:100CB8001B7813B9084B1B784BB1054B01221A70EE
:100CC8000023044A1370044A1370044A13707047CF
:100CD800750100202000002076010020740100200A
:100CE800094B1B782BB9094B1B7813B9084B1B7898
:100CF8004BB10023074A1370044A1370044A137057
:100D0800014B01221A707047740100202000002056
:100D18007601002075010020094B1B782BB9094B7F
:100D28001B7813B9084B1B784BB1064B01221A707C
:100D38000023054A1370054A1370014A137070475F
:100D48007401002020000020750100207601002099
:100D5800094B1B782BB9094B1B7813B9084B1B7827
:100D68004BB10023074A1370054A1370034A012147
:100D78001170014A13707047740100207601002039
:100D8800750100202000002070B582B01A4C21782F
:100D98001A4D2B78A3F10802A1F108004FF6FF764F
:100DA8000096D2B2C0B2FFF742FF00F065FC4342A2
:100DB80000F07F0003F07F0358BF5842C0B2207094
:100DC8000838C6B200F058FC0D4A82FB0032C3173F
:100DD800C3EBA21303EB83035A01831ADBB22B7014
:100DE800A3F10802217800200090D2B23046FFF724
:100DF8001EFF02B070BD00BF510100205D01002040
:100E08006766666630B583B02B4B1B78082B02D912
:100E1800294B08221A70284B1B7823B35BB20EE0CB
:100E28005A1E2649885CC8542549885CC8542549F7
:100E3800885CC85424498A5CCA54013B5BB2002BC5
:100E4800EEDC224B1A781D4B1A70214B1A781C4B7A
:100E58001A70204B1A781B4B1A701F4B1A781A4BB2
:100E68001A70002422E0194B1878144B1870184B8C
:100E78001978134B1970174B1A78124B1A70164BB6
:100E88001B78114C23701F240094FFF7D0FEE8E76D
:100E98000D4B1B5D0B4A125D0949095D0748005D52
:100EA8001F250095FFF7C3FE0134E4B2024B1B78FF
:100EB800A342EDD803B030BD410100204801002015
:100EC80024000020540100203000002042010020AE
:100ED80043010020440100204501002030B583B0C3
:100EE80000240EE00A4B1B5D0A4A125D0A49095D9F
:100EF8000A48005D4FF6FF750095FFF798FE01342C
:100F0800E4B2074B1B78A342ECD803B030BD00BF56
:100F18003000002054010020240000204801002057
:100F2800410100205E4B1B78DBB2012B40F0B680FC
:100F3800F0B583B088E05B4E33785B4D2A784FF686
:100F4800FF770097FFF773FE584B18780830C0B248
:100F5800187033782A78564909781F270097FFF7C1
:100F680066FE0834E4B233782A78009721460020D8
:100F7800FFF75DFE4F48FFF7B7FD4C4B18784C4B19
:100F880019788842D7D3474B1B78474A12784FF6CF
:100F9800FF740094FFF74BFE444B00221A70444B39
:100FA80008221A70424B1978434B1B78A3F10802A8
:100FB800914201DB994205D93C4909788A423BDCD8
:100FC8008B4239D3374B1A783C4B1B789A4203D85B
:100FD800A3F108018A4206DA334A127893422BD3E6
:100FE800083B9A4228DB364A137801331370FFF71F
:100FF800CBFEFFF707FF2F48FFF776FD1FE02B4CCE
:101008002078304B1870304B1970274B1A782F4BBB
:101018001A70244B1B782E4D2B700830C0B22070EC
:101028000831C9B2224C21701F240094FFF7FFFD3C
:101038002848FFF759FDB5E7214B1B7833BB184B00
:101048001B78DBB2012B27D1164B1B78164A127876
:10105800174C2178154800784FF6FF750095FFF773
:10106800E6FDFFF73BFF21787E29C8D90F4B1A7898
:10107800144B1A70144B19700B4B1A78134B1A70C7
:10108800084B1A78124B1A70002476E7FFF7BAFE5D
:101098001048FFF729FDD2E703B0F0BD704700BF45
:1010A800750100202D00002052010020460100207B
:1010B80021000020A0860100510100205D010020D0
:1010C800410100204201002043010020440100208A
:1010D80045010020905F01005E4B1B78DBB2012BBD
:1010E80040F0B680F0B583B088E05B4E31785B4D58
:1010F80028784FF6FF770097FFF799FD584B1A7835
:101108000832D2B21A70574B1B78317828781F27CB
:101118000097FFF78CFD0834E4B2317828780097FF
:1011280023460022FFF783FD4F48FFF7DDFC4C4BB9
:101138001A784C4B1B789A42D7D3474909784748C5
:1011480000784FF6FF740094FFF771FD444B0022BE
:101158001A70444B08221A703F4B1978434B1B787E
:10116800A3F10802914201DB994205D93B4909786C
:101178008A423BDC8B4239D33A4B1A783C4B1B787A
:101188009A4203D8A3F108018A4206DA344A12784F
:1011980093422BD3083B9A4228DB364A1378013313
:1011A8001370FFF7F1FDFFF72DFE2F48FFF79CFCAA
:1011B8001FE02A4A1078304A1070274A11782F4ABF
:1011C8001170274C22782E4D2A702E4D2B70083224
:1011D800D2B222700833DBB2224C23701F24009451
:1011E800FFF725FD2848FFF77FFCB5E7214B1B7863
:1011F80033BB184B1B78DBB2012B27D1194C237852
:10120800174A127814490978144800784FF6FF7580
:101218000095FFF70CFDFFF761FE23789E2BC8D9D8
:101228000E4A1178144A11700B4A1178134A11703A
:101238000B4A1178124A1170124A1370002476E78B
:10124800FFF7E0FD1048FFF74FFCD2E703B0F0BD11
:10125800704700BF20000020210000204601002028
:10126800520100202D000020A0860100510100201D
:101278005D010020410100204201002043010020BF
:101288004401002045010020905F0100464B1B7877
:10129800DBB2012B40F0868030B583B023E04349B0
:1012A80008784349087043490978434C2170434CF6
:1012B8002370434C2378434D2B70434D2A70083BD1
:1012C800DBB223701F240094FFF7B1FC3F48FFF7FF
:1012D8000BFC32E03E4B1B78002B5BD1324B1B786A
:1012E800DBB2012B5CD1364B1B78374C2278314965
:1012F80009782E4800784FF6FF750095FFF797FCA0
:10130800FFF7ECFD2378A3F10802D2B29F2AC6D9D1
:101318002A4A13702A490A782A4B1A70972222708F
:101328009F230B7023490978204800781F240094D4
:10133800FFF77DFC2748FFF7D7FB1E4B1978264B94
:101348001B78A3F10802914201DB994205D917499C
:1013580009788A42BEDC8B42BCD3194B1A781F4BE2
:101368001B789A4203D8A3F108018A4206DA164A82
:1013780012789342AED3083B9A42ABDB144A1378F7
:1013880001331370FFF700FDFFF73CFD1148FFF72D
:10139800ABFBA3E7FFF736FD0C48FFF7A5FB9DE77E
:1013A80003B030BD704700BF760100204601002021
:1013B80042010020210000204301002044010020B8
:1013C8002D0000204501002052010020905F0100FF
:1013D80041010020A0860100510100205D0100208C
:1013E800494B1B78DBB2012B40F08C8030B583B0C1
:1013F80023E0464A1370464C2278464B1A70464BF7
:101408001A78464B1A70464B1B7846490B70772062
:10141800454908707F2121701F240094FFF707FCBD
:101428004248FFF761FB38E0414B1B78002B61D144
:10143800354B1B78DBB2012B62D1394B1B78364A0E
:10144800127833490978384C20784FF6FF750095A3
:10145800FFF7EDFBFFF742FD2378A3F10800C0B2C8
:1014680010F0800FC5D1294A1370294C2178294BD7
:101478001970294B1A78294B1A70294B1B78294D5A
:101488002B70294D28700839C9B221701F24009487
:10149800FFF7CDFB2748FFF727FB1D4B1978264B95
:1014A8001B78A3F10802914201DB994205D91E4934
:1014B80009788A42B8DC8B42B6D3194B1A781F4B8D
:1014C8001B789A4203D8A3F108018A4206DA124A25
:1014D80012789342A8D3083B9A42A5DB144A1378A2
:1014E80001331370FFF750FCFFF78CFC0F48FFF730
:1014F800FBFA9DE7FFF786FC0E48FFF7F5FA97E73A
:1015080003B030BD704700BF7401002042010020C5
:101518002100002043010020520100204401002046
:101528002D0000204501002046010020A086010072
:1015380041010020905F0100510100205D01002061
:1015480000B583B0FFF74AFA02210846FFF750FAC0
:101558000C210220FFF74CFA022204210020FFF799
:10156800F1F802220B210020FFF7ECF809220521EF
:101578000020FFF7E7F8092207210020FFF7E2F82B
:101588003648FFF7FDF93648FFF700FA3548FFF708
:1015980003FA3548FFF706FA082200210846FFF744
:1015A800D1F8082201210020FFF7CCF808220221F7
:1015B8000020FFF7C7F8082203210020FFF7C2F830
:1015C800012200210846FFF731F9012211460020C7
:1015D800FFF72CF9012202210020FFF727F9012249
:1015E80003210020FFF722F9FFF778FA00210120F4
:1015F800FFF79EF901210846FFF79AF90221012019
:10160800FFF796F903210120FFF792F90620FFF76B
:10161800CFF90720FFF7CCF90820FFF7C9F909200F
:10162800FFF7C6F9FFF70AFAFFF792FA4FF6FF70CD
:10163800FFF7CCFA1F23009308230022194610460F
:10164800FFF7F5FAFFF7A0FBFFF746FDFFF7C8FE27
:10165800FFF71CFEFFF766FCF6E700BF590D000810
:10166800210D0008E90C0008B10C0008014B1868AE
:10167800704700BF3C00002038B5134B1C68A36BB3
:101688007BB9182000F066F8104A114BA063C0E936
:101698000023104B012283600B2383810023C0E9C0
:1016A8000423A16B0C480A694B6950430B4C04FB9B
:1016B8000300A2FB04230344541C43F10005C1E9C1
:1016C800044525F0004038BD3C0000200E33CDAB6A
:1016D80034126DE6ECDE05002DF451582D7F954C43
:1016E80030B5141E05469BB0184605DA8B234FF01B
:1016F800FF302B601BB030BD4FF40273ADF80C30D7
:101708000CBF234604F1FF33029305934FF6FF7392
:1017180000910491ADF80E3002461E9B694628469A
:1017280000F020F9431CBCBF8B232B60002CE1D0B8
:101738000022009B1A70DDE707B5009313460A469E
:10174800014603480068FFF7CBFF03B05DF804FBD0
:101758003C000020024B0146186800F04FB800BF5B
:101768003C00002038B50546002943D051F8043C18
:101778000C1F002BB8BFE41800F0B4FB1E4A136816
:10178800104633B9636014602846BDE8384000F05D
:10179800AABBA3420BD921686218934201BF1A68F9
:1017A8005B685218226063600460EDE713465A686C
:1017B8000AB1A242FAD919685818A0420BD1206878
:1017C8000144581882421960DED1106852680144F9
:1017D80019605A60D8E702D90C232B60D4E7206837
:1017E80021188A4201BF1168526809182160626095
:1017F8005C60C9E738BD00BF6001002070B5CD1C32
:1018080025F0030508350C2D38BF0C25002D06469C
:1018180001DBA94203D90C233360002070BD00F01E
:1018280061FB214A1468214691B9204C23681BB9F1
:10183800304600F015FB20602946304600F010FBCA
:10184800431C24D10C233046336000F04CFBE4E702
:101858000B685B1B18D40B2B0FD90B60CC18CD5021
:10186800304600F040FB04F10B00231D20F0070078
:10187800C31AD3D05A42E250D0E74B688C4216BF05
:10188800636013600C46EBE70C464968CCE7C41C60
:1018980024F00304A04205D0211A304600F0E0FAF3
:1018A8000130CFD02560DBE7600100206401002013
:1018B8002DE9F0478E6882469E420C46904699462E
:1018C80037D88A8912F4906F31D0022325680969C4
:1018D8006F1A656905EB450595FBF3F509F10103F9
:1018E8003B449D4238BF1D46530530D52946FFF776
:1018F80085FF064650B90C234FF0FF30CAF8003078
:10190800A38943F04003A381BDE8F0873A462169E3
:1019180000F0C4FAA38923F4906343F08003A38101
:1019280026613E4426604E466561ED1BA5604E4526
:1019380000D94E4632464146206800F0BAFAA368FC
:1019480000209B1BA36023681E442660DCE72A4610
:1019580000F0CAFA06460028E2D121695046FFF78E
:1019680001FFC8E72DE9F04F9DB003938B898046AE
:101978001D060C4616460FD50B696BB94021FFF7BB
:101988003DFF2060206128B90C23C8F800304FF0D3
:10199800FF30C7E0402363610023099320238DF8BB
:1019A800293030234FF0010B8DF82A3037463D4659
:1019B80015F8013B0BB1252B3ED1B7EB060A0BD02E
:1019C8005346324621464046FFF772FF013000F089
:1019D800A480099B534409933B78002B00F09D8019
:1019E80000234FF0FF32CDE90523049307938DF8C8
:1019F80053301A932F46052217F8011B4F4800F061
:101A08003FFA049BD0B9D90644BF20228DF8532051
:101A18001A0744BF2B228DF853202A782A2A15D07A
:101A28002F4600200A25079A394611F8013B303B1A
:101A3800092B4DD9B8B10FE02F46B8E73F4A3D46CC
:101A4800801A0BFA00F018430490D3E7039A111D8B
:101A580012680391002A01DB079204E0524243F026
:101A68000203079204933B782E2B0CD17B782A2B08
:101A780033D1039B02371A1D1B680392002BB8BF92
:101A88004FF0FF3305932E4D03223978284600F096
:101A9800F7F938B14023401B03FA00F0049B0137E3
:101AA800034304933978062226487E1C8DF82810B3
:101AB80000F0E6F9002838D0234B13BB039B07330B
:101AC80023F0070308330393099B4B4409936DE7FD
:101AD80005FB023201200F46A6E700230A25194616
:101AE80001370593384610F8012B303A092A03D9F3
:101AF800002BC8D00591C6E705FB01210123074645
:101B0800F0E703AB00932246104B04A94046AFF31D
:101B18000080B0F1FF3F8146D6D1A3895B063FF52F
:101B280036AF09981DB0BDE8F08F03AB009322468D
:101B3800064B04A9404600F081F8EAE79420000823
:101B48009A2000089E20000800000000B91800082C
:101B58002DE9F04791461F468A680B69064693426D
:101B6800B8BF1346C9F8003091F843200C46DDF899
:101B7800208012B10133C9F800302368990642BFAA
:101B8800D9F800300233C9F80030256815F0060589
:101B980007D104F1190AE368D9F800209B1AAB426F
:101BA80029DC94F843302268003318BF01239206D9
:101BB8002ED404F1430239463046C047013021D0C3
:101BC8002368E56803F00603042B18BF0025D9F83D
:101BD80000204FF0000908BFAD1AA368226908BFAA
:101BE80025EAE5759342C4BF9B1AED181A344D4592
:101BF8001AD1002008E00123524639463046C04732
:101C0800013003D14FF0FF30BDE8F0870135C2E75E
:101C18003020E11881F843005A1C94F845102244FA
:101C2800023382F84310C4E701232246394630467E
:101C3800C0470130E6D009F10109D8E72DE9F043A2
:101C480001F1430C0C46097E85B06E2917460646FD
:101C580098460C9A00F0B38022D8632936D00AD867
:101C6800002900F0B980582900F0838004F142056A
:101C780084F8421032E0642901D06929F6D120683D
:101C88001368050603F104012AD51B681160002BAF
:101C980003DA2D225B4284F843206F480A2239E098
:101CA800732900F09D8008D86F2920D07029DDD1D4
:101CB800236843F02003236003E0752917D07829AF
:101CC800D4D17823654884F8453055E0136804F189
:101CD8004205191D1B68116084F8423001238CE00D
:101CE8001B6810F0400F116018BF1BB2CFE71368D4
:101CF8002568181D1060280601D51B6802E06806D3
:101D0800FBD51B886F2914BF0A22082252480021DC
:101D180084F843106568002DA560C0F2958021689D
:101D280021F004012160002B3DD1002D40F08E8070
:101D38006546082A0BD12368DB0708D52369626842
:101D48009A42DEBF302305F8013C05F1FF35ACEBC4
:101D580005032361CDF800803B4603AA214630469F
:101D6800FFF7F6FE01304DD14FF0FF3005B0BDE86A
:101D7800F083394884F84510136821681D1D1B68D5
:101D880015600A060BD5CA0744BF41F0200121603F
:101D98001BB9226822F0200222601022B7E74D0604
:101DA80048BF9BB2EFE76546B3FBF2F102FB113384
:101DB800C35C05F8013D0B460029F5D1B9E7136866
:101DC8002568181D6169106028061B6801D519600F
:101DD80002E06A06FBD51980002365462361B9E74E
:101DE8001368191D11601D6862680021284600F0FB
:101DF80047F808B1401B606063682361002384F8DA
:101E08004330A7E723692A4639463046C0470130A0
:101E1800AAD023689B0713D4E068039B9842B8BFF5
:101E28001846A3E701234A4639463046C0470130E1
:101E38009AD00135E368039A9B1AAB42F2DCEBE7D0
:101E4800002504F11909F5E7002BACD1037804F15A
:101E5800420584F842306CE7A5200008B620000847
:101E680038B50023054C054608462360FEF782FA7C
:101E7800431C02D1236803B12B6038BD68010020E0
:101E880010B5C9B202449042034601D1002303E0D1
:101E98001C7801308C42F6D1184610BD10B5431E8F
:101EA8000A44914200D110BD11F8014B03F8014FCB
:101EB800F7E7884210B501EB020307D8421E9942A2
:101EC8000AD011F8014B02F8014FF8E78342F5D91F
:101ED8008118D21AD34200D110BD13F8014D01F870
:101EE800014DF7E770477047F8B5074614460E46A8
:101EF80021B9BDE8F8401146FFF780BC22B9FFF7C9
:101F080031FC25462846F8BD00F014F8A0420FD24F
:101F180021463846FFF772FC05460028F2D03146C4
:101F28002246FFF7BBFF31463846FFF71BFCE9E7BF
:101F38003546E7E751F8043C181F002BBCBF0B5887
:101F4800C0187047537461636B206672616D653A9F
:101F58000A000000205230203D2020253038580A41
:101F680000000000205231203D2020253038580A3A
:101F780000000000205232203D2020253038580A29
:101F880000000000205233203D2020253038580A18
:101F98000000000020523132203D20253038580AF8
:101FA80000000000204C52203D2020253038580ADF
:101FB80000000000205043203D2020253038580ADA
:101FC8000000000020505352203D20253038580A88
:101FD800000000004653522F4641523A0A000000C2
:101FE8002043465352203D2020253038580A00000F
:101FF8002048465352203D2020253038580A0000FA
:102008002044465352203D2020253038580A0000ED
:102018002041465352203D2020253038580A0000E0
:10202800204D4D464152203D20253038580A0000A9
:102038002042464152203D2020253038580A0000D1
:102048004D6973630A000000204C522F4558435FC6
:1020580052455455524E3D20253038580A0000004C
:102068005B486172644661756C745D0A000000002B
:102078005B4275734661756C745D0A005B557361EC
:1020880067654661756C745D0A000000232D302B6E
:102098002000686C4C006566674546470030313261
:1020A80033343536373839414243444546003031B8
:0F20B80032333435363738396162636465660018
:1020C80078563412AC000020000000000000000028
:1020D80000000000010203040607080900A24A04E0
:1020E8000108FFFF08000000000000000008FFFFD3
:1020F800080000000000000000FFFFFF4000002073
:1021080000000000000000000000000000000000C7
:1021180000000000000000000000000000000000B7
:1021280000000000000000000000000000000000A7
:102138000000000000000000000000000000000097
:102148000000000000000000000000000000000087
:102158000000000000000000000000000000000077
:0421680032547698DF
:040000050800010DE1
:00000001FF
